{
  "contractName": "EHR",
  "abi": [
    {
      "constant": true,
      "inputs": [
        {
          "internalType": "uint256",
          "name": "",
          "type": "uint256"
        }
      ],
      "name": "Enc_Patients",
      "outputs": [
        {
          "internalType": "string",
          "name": "",
          "type": "string"
        }
      ],
      "payable": false,
      "stateMutability": "view",
      "type": "function"
    },
    {
      "constant": true,
      "inputs": [
        {
          "internalType": "uint256",
          "name": "",
          "type": "uint256"
        }
      ],
      "name": "Enc_Visits",
      "outputs": [
        {
          "internalType": "string",
          "name": "",
          "type": "string"
        }
      ],
      "payable": false,
      "stateMutability": "view",
      "type": "function"
    },
    {
      "constant": true,
      "inputs": [
        {
          "internalType": "uint256",
          "name": "",
          "type": "uint256"
        }
      ],
      "name": "Patients_sig",
      "outputs": [
        {
          "internalType": "string",
          "name": "",
          "type": "string"
        }
      ],
      "payable": false,
      "stateMutability": "view",
      "type": "function"
    },
    {
      "constant": true,
      "inputs": [
        {
          "internalType": "uint256",
          "name": "",
          "type": "uint256"
        }
      ],
      "name": "VisToPrevVis",
      "outputs": [
        {
          "internalType": "uint256",
          "name": "",
          "type": "uint256"
        }
      ],
      "payable": false,
      "stateMutability": "view",
      "type": "function"
    },
    {
      "constant": true,
      "inputs": [
        {
          "internalType": "uint256",
          "name": "",
          "type": "uint256"
        }
      ],
      "name": "Visits_sig",
      "outputs": [
        {
          "internalType": "string",
          "name": "",
          "type": "string"
        }
      ],
      "payable": false,
      "stateMutability": "view",
      "type": "function"
    },
    {
      "constant": true,
      "inputs": [
        {
          "internalType": "uint256",
          "name": "",
          "type": "uint256"
        }
      ],
      "name": "isFirstVisOfPatient",
      "outputs": [
        {
          "internalType": "bool",
          "name": "",
          "type": "bool"
        }
      ],
      "payable": false,
      "stateMutability": "view",
      "type": "function"
    },
    {
      "constant": true,
      "inputs": [
        {
          "internalType": "uint256",
          "name": "",
          "type": "uint256"
        }
      ],
      "name": "patPrevVis",
      "outputs": [
        {
          "internalType": "uint256",
          "name": "",
          "type": "uint256"
        }
      ],
      "payable": false,
      "stateMutability": "view",
      "type": "function"
    },
    {
      "constant": true,
      "inputs": [],
      "name": "patientCount",
      "outputs": [
        {
          "internalType": "uint256",
          "name": "",
          "type": "uint256"
        }
      ],
      "payable": false,
      "stateMutability": "view",
      "type": "function"
    },
    {
      "constant": true,
      "inputs": [
        {
          "internalType": "bytes",
          "name": "",
          "type": "bytes"
        },
        {
          "internalType": "uint256",
          "name": "",
          "type": "uint256"
        }
      ],
      "name": "patientRecordsPerHospital",
      "outputs": [
        {
          "internalType": "uint256",
          "name": "",
          "type": "uint256"
        }
      ],
      "payable": false,
      "stateMutability": "view",
      "type": "function"
    },
    {
      "constant": true,
      "inputs": [],
      "name": "visitCount",
      "outputs": [
        {
          "internalType": "uint256",
          "name": "",
          "type": "uint256"
        }
      ],
      "payable": false,
      "stateMutability": "view",
      "type": "function"
    },
    {
      "constant": true,
      "inputs": [
        {
          "internalType": "bytes",
          "name": "",
          "type": "bytes"
        },
        {
          "internalType": "uint256",
          "name": "",
          "type": "uint256"
        }
      ],
      "name": "visitRecordsPerHospital",
      "outputs": [
        {
          "internalType": "uint256",
          "name": "",
          "type": "uint256"
        }
      ],
      "payable": false,
      "stateMutability": "view",
      "type": "function"
    },
    {
      "constant": true,
      "inputs": [
        {
          "internalType": "uint256",
          "name": "idx",
          "type": "uint256"
        }
      ],
      "name": "getPatientById",
      "outputs": [
        {
          "internalType": "string",
          "name": "",
          "type": "string"
        }
      ],
      "payable": false,
      "stateMutability": "view",
      "type": "function"
    },
    {
      "constant": true,
      "inputs": [
        {
          "internalType": "uint256",
          "name": "idx",
          "type": "uint256"
        }
      ],
      "name": "getPatientSigById",
      "outputs": [
        {
          "internalType": "string",
          "name": "",
          "type": "string"
        }
      ],
      "payable": false,
      "stateMutability": "view",
      "type": "function"
    },
    {
      "constant": true,
      "inputs": [
        {
          "internalType": "bytes",
          "name": "addr",
          "type": "bytes"
        }
      ],
      "name": "getMyPatients",
      "outputs": [
        {
          "internalType": "uint256[]",
          "name": "ids",
          "type": "uint256[]"
        }
      ],
      "payable": false,
      "stateMutability": "view",
      "type": "function"
    },
    {
      "constant": true,
      "inputs": [
        {
          "internalType": "uint256",
          "name": "idx",
          "type": "uint256"
        }
      ],
      "name": "getVisitById",
      "outputs": [
        {
          "internalType": "string",
          "name": "",
          "type": "string"
        }
      ],
      "payable": false,
      "stateMutability": "view",
      "type": "function"
    },
    {
      "constant": true,
      "inputs": [
        {
          "internalType": "uint256",
          "name": "idx",
          "type": "uint256"
        }
      ],
      "name": "getVisitSigById",
      "outputs": [
        {
          "internalType": "string",
          "name": "",
          "type": "string"
        }
      ],
      "payable": false,
      "stateMutability": "view",
      "type": "function"
    },
    {
      "constant": true,
      "inputs": [
        {
          "internalType": "bytes",
          "name": "addr",
          "type": "bytes"
        }
      ],
      "name": "getMyVisits",
      "outputs": [
        {
          "internalType": "uint256[]",
          "name": "ids",
          "type": "uint256[]"
        }
      ],
      "payable": false,
      "stateMutability": "view",
      "type": "function"
    },
    {
      "constant": true,
      "inputs": [
        {
          "internalType": "bytes",
          "name": "addr",
          "type": "bytes"
        },
        {
          "internalType": "uint256",
          "name": "patidx",
          "type": "uint256"
        }
      ],
      "name": "getPatientVisits",
      "outputs": [
        {
          "internalType": "uint256[]",
          "name": "ids",
          "type": "uint256[]"
        }
      ],
      "payable": false,
      "stateMutability": "view",
      "type": "function"
    },
    {
      "constant": true,
      "inputs": [
        {
          "internalType": "uint256",
          "name": "idx",
          "type": "uint256"
        }
      ],
      "name": "VisPointsToPatient",
      "outputs": [
        {
          "internalType": "bool",
          "name": "",
          "type": "bool"
        }
      ],
      "payable": false,
      "stateMutability": "view",
      "type": "function"
    },
    {
      "constant": true,
      "inputs": [
        {
          "internalType": "uint256",
          "name": "idx",
          "type": "uint256"
        }
      ],
      "name": "getPrevVisitById",
      "outputs": [
        {
          "internalType": "uint256",
          "name": "",
          "type": "uint256"
        }
      ],
      "payable": false,
      "stateMutability": "view",
      "type": "function"
    },
    {
      "constant": false,
      "inputs": [
        {
          "internalType": "bytes",
          "name": "hospAddress",
          "type": "bytes"
        },
        {
          "internalType": "string",
          "name": "_patientEnc",
          "type": "string"
        },
        {
          "internalType": "string",
          "name": "_patientSig",
          "type": "string"
        }
      ],
      "name": "addPatient",
      "outputs": [],
      "payable": false,
      "stateMutability": "nonpayable",
      "type": "function"
    },
    {
      "constant": false,
      "inputs": [
        {
          "internalType": "uint256",
          "name": "patid",
          "type": "uint256"
        },
        {
          "internalType": "bytes",
          "name": "hospAddress",
          "type": "bytes"
        },
        {
          "internalType": "string",
          "name": "_visitHash",
          "type": "string"
        },
        {
          "internalType": "string",
          "name": "_visitSig",
          "type": "string"
        }
      ],
      "name": "addVisit",
      "outputs": [],
      "payable": false,
      "stateMutability": "nonpayable",
      "type": "function"
    },
    {
      "constant": false,
      "inputs": [
        {
          "internalType": "bytes",
          "name": "hospAddress",
          "type": "bytes"
        },
        {
          "internalType": "string",
          "name": "_visitHash",
          "type": "string"
        },
        {
          "internalType": "string",
          "name": "_visitSig",
          "type": "string"
        }
      ],
      "name": "addVisitOld",
      "outputs": [],
      "payable": false,
      "stateMutability": "nonpayable",
      "type": "function"
    },
    {
      "constant": false,
      "inputs": [
        {
          "internalType": "uint256",
          "name": "patid",
          "type": "uint256"
        },
        {
          "internalType": "bytes",
          "name": "hospAddress",
          "type": "bytes"
        },
        {
          "internalType": "string",
          "name": "_visitHash",
          "type": "string"
        },
        {
          "internalType": "string",
          "name": "_visitSig",
          "type": "string"
        }
      ],
      "name": "addVisit2",
      "outputs": [],
      "payable": false,
      "stateMutability": "nonpayable",
      "type": "function"
    }
  ],
  "bytecode": "0x608060405234801561001057600080fd5b50612457806100206000396000f3fe608060405234801561001057600080fd5b50600436106101585760003560e01c8063916f1934116100c3578063a8b707711161007c578063a8b7077114611057578063d6f7137214611130578063e0e4367e146111d7578063e22d516f146111f5578063e3e72a47146113de578063ea3574f41461142057610158565b8063916f193414610be857806392cd88a014610c8f578063977b994614610d365780639f9f902e14610e0f578063a0303c4114610f1f578063a3ed277514610f3d57610158565b80635c366f4d116101155780635c366f4d1461063257806367a36e0b1461081b57806374f5f3ff146108c2578063768599261461096957806383ff1633146109af5780638746833214610ba257610158565b80630a13639a1461015d5780630f2c18de14610204578063150770f31461024657806318e0586d146103565780631a6872c8146105495780633fef96501461058b575b600080fd5b6101896004803603602081101561017357600080fd5b81019080803590602001909291905050506114c7565b6040518080602001828103825283818151815260200191508051906020019080838360005b838110156101c95780820151818401526020810190506101ae565b50505050905090810190601f1680156101f65780820380516001836020036101000a031916815260200191505b509250505060405180910390f35b6102306004803603602081101561021a57600080fd5b8101908080359060200190929190505050611577565b6040518082815260200191505060405180910390f35b6102ff6004803603602081101561025c57600080fd5b810190808035906020019064010000000081111561027957600080fd5b82018360208201111561028b57600080fd5b803590602001918460018302840111640100000000831117156102ad57600080fd5b91908080601f016020809104026020016040519081016040528093929190818152602001838380828437600081840152601f19601f82011690508083019250505050505050919291929050505061158f565b6040518080602001828103825283818151815260200191508051906020019060200280838360005b83811015610342578082015181840152602081019050610327565b505050509050019250505060405180910390f35b6105476004803603608081101561036c57600080fd5b81019080803590602001909291908035906020019064010000000081111561039357600080fd5b8201836020820111156103a557600080fd5b803590602001918460018302840111640100000000831117156103c757600080fd5b91908080601f016020809104026020016040519081016040528093929190818152602001838380828437600081840152601f19601f8201169050808301925050505050505091929192908035906020019064010000000081111561042a57600080fd5b82018360208201111561043c57600080fd5b8035906020019184600183028401116401000000008311171561045e57600080fd5b91908080601f016020809104026020016040519081016040528093929190818152602001838380828437600081840152601f19601f820116905080830192505050505050509192919290803590602001906401000000008111156104c157600080fd5b8201836020820111156104d357600080fd5b803590602001918460018302840111640100000000831117156104f557600080fd5b91908080601f016020809104026020016040519081016040528093929190818152602001838380828437600081840152601f19601f820116905080830192505050505050509192919290505050611650565b005b6105756004803603602081101561055f57600080fd5b8101908080359060200190929190505050611830565b6040518082815260200191505060405180910390f35b6105b7600480360360208110156105a157600080fd5b8101908080359060200190929190505050611848565b6040518080602001828103825283818151815260200191508051906020019080838360005b838110156105f75780820151818401526020810190506105dc565b50505050905090810190601f1680156106245780820380516001836020036101000a031916815260200191505b509250505060405180910390f35b6108196004803603606081101561064857600080fd5b810190808035906020019064010000000081111561066557600080fd5b82018360208201111561067757600080fd5b8035906020019184600183028401116401000000008311171561069957600080fd5b91908080601f016020809104026020016040519081016040528093929190818152602001838380828437600081840152601f19601f820116905080830192505050505050509192919290803590602001906401000000008111156106fc57600080fd5b82018360208201111561070e57600080fd5b8035906020019184600183028401116401000000008311171561073057600080fd5b91908080601f016020809104026020016040519081016040528093929190818152602001838380828437600081840152601f19601f8201169050808301925050505050505091929192908035906020019064010000000081111561079357600080fd5b8201836020820111156107a557600080fd5b803590602001918460018302840111640100000000831117156107c757600080fd5b91908080601f016020809104026020016040519081016040528093929190818152602001838380828437600081840152601f19601f8201169050808301925050505050505091929192905050506118fd565b005b6108476004803603602081101561083157600080fd5b81019080803590602001909291905050506119fd565b6040518080602001828103825283818151815260200191508051906020019080838360005b8381101561088757808201518184015260208101905061086c565b50505050905090810190601f1680156108b45780820380516001836020036101000a031916815260200191505b509250505060405180910390f35b6108ee600480360360208110156108d857600080fd5b8101908080359060200190929190505050611ab2565b6040518080602001828103825283818151815260200191508051906020019080838360005b8381101561092e578082015181840152602081019050610913565b50505050905090810190601f16801561095b5780820380516001836020036101000a031916815260200191505b509250505060405180910390f35b6109956004803603602081101561097f57600080fd5b8101908080359060200190929190505050611b62565b604051808215151515815260200191505060405180910390f35b610ba0600480360360808110156109c557600080fd5b8101908080359060200190929190803590602001906401000000008111156109ec57600080fd5b8201836020820111156109fe57600080fd5b80359060200191846001830284011164010000000083111715610a2057600080fd5b91908080601f016020809104026020016040519081016040528093929190818152602001838380828437600081840152601f19601f82011690508083019250505050505050919291929080359060200190640100000000811115610a8357600080fd5b820183602082011115610a9557600080fd5b80359060200191846001830284011164010000000083111715610ab757600080fd5b91908080601f016020809104026020016040519081016040528093929190818152602001838380828437600081840152601f19601f82011690508083019250505050505050919291929080359060200190640100000000811115610b1a57600080fd5b820183602082011115610b2c57600080fd5b80359060200191846001830284011164010000000083111715610b4e57600080fd5b91908080601f016020809104026020016040519081016040528093929190818152602001838380828437600081840152601f19601f820116905080830192505050505050509192919290505050611b8c565b005b610bce60048036036020811015610bb857600080fd5b8101908080359060200190929190505050611d33565b604051808215151515815260200191505060405180910390f35b610c1460048036036020811015610bfe57600080fd5b8101908080359060200190929190505050611d53565b6040518080602001828103825283818151815260200191508051906020019080838360005b83811015610c54578082015181840152602081019050610c39565b50505050905090810190601f168015610c815780820380516001836020036101000a031916815260200191505b509250505060405180910390f35b610cbb60048036036020811015610ca557600080fd5b8101908080359060200190929190505050611e08565b6040518080602001828103825283818151815260200191508051906020019080838360005b83811015610cfb578082015181840152602081019050610ce0565b50505050905090810190601f168015610d285780820380516001836020036101000a031916815260200191505b509250505060405180910390f35b610df960048036036040811015610d4c57600080fd5b8101908080359060200190640100000000811115610d6957600080fd5b820183602082011115610d7b57600080fd5b80359060200191846001830284011164010000000083111715610d9d57600080fd5b91908080601f016020809104026020016040519081016040528093929190818152602001838380828437600081840152601f19601f82011690508083019250505050505050919291929080359060200190929190505050611eb8565b6040518082815260200191505060405180910390f35b610ec860048036036020811015610e2557600080fd5b8101908080359060200190640100000000811115610e4257600080fd5b820183602082011115610e5457600080fd5b80359060200191846001830284011164010000000083111715610e7657600080fd5b91908080601f016020809104026020016040519081016040528093929190818152602001838380828437600081840152601f19601f820116905080830192505050505050509192919290505050611efc565b6040518080602001828103825283818151815260200191508051906020019060200280838360005b83811015610f0b578082015181840152602081019050610ef0565b505050509050019250505060405180910390f35b610f27611fbd565b6040518082815260200191505060405180910390f35b61100060048036036040811015610f5357600080fd5b8101908080359060200190640100000000811115610f7057600080fd5b820183602082011115610f8257600080fd5b80359060200191846001830284011164010000000083111715610fa457600080fd5b91908080601f016020809104026020016040519081016040528093929190818152602001838380828437600081840152601f19601f82011690508083019250505050505050919291929080359060200190929190505050611fc3565b6040518080602001828103825283818151815260200191508051906020019060200280838360005b83811015611043578082015181840152602081019050611028565b505050509050019250505060405180910390f35b61111a6004803603604081101561106d57600080fd5b810190808035906020019064010000000081111561108a57600080fd5b82018360208201111561109c57600080fd5b803590602001918460018302840111640100000000831117156110be57600080fd5b91908080601f016020809104026020016040519081016040528093929190818152602001838380828437600081840152601f19601f82011690508083019250505050505050919291929080359060200190929190505050612096565b6040518082815260200191505060405180910390f35b61115c6004803603602081101561114657600080fd5b81019080803590602001909291905050506120da565b6040518080602001828103825283818151815260200191508051906020019080838360005b8381101561119c578082015181840152602081019050611181565b50505050905090810190601f1680156111c95780820380516001836020036101000a031916815260200191505b509250505060405180910390f35b6111df61218f565b6040518082815260200191505060405180910390f35b6113dc6004803603606081101561120b57600080fd5b810190808035906020019064010000000081111561122857600080fd5b82018360208201111561123a57600080fd5b8035906020019184600183028401116401000000008311171561125c57600080fd5b91908080601f016020809104026020016040519081016040528093929190818152602001838380828437600081840152601f19601f820116905080830192505050505050509192919290803590602001906401000000008111156112bf57600080fd5b8201836020820111156112d157600080fd5b803590602001918460018302840111640100000000831117156112f357600080fd5b91908080601f016020809104026020016040519081016040528093929190818152602001838380828437600081840152601f19601f8201169050808301925050505050505091929192908035906020019064010000000081111561135657600080fd5b82018360208201111561136857600080fd5b8035906020019184600183028401116401000000008311171561138a57600080fd5b91908080601f016020809104026020016040519081016040528093929190818152602001838380828437600081840152601f19601f820116905080830192505050505050509192919290505050612195565b005b61140a600480360360208110156113f457600080fd5b81019080803590602001909291905050506122b0565b6040518082815260200191505060405180910390f35b61144c6004803603602081101561143657600080fd5b81019080803590602001909291905050506122cd565b6040518080602001828103825283818151815260200191508051906020019080838360005b8381101561148c578082015181840152602081019050611471565b50505050905090810190601f1680156114b95780820380516001836020036101000a031916815260200191505b509250505060405180910390f35b60066020528060005260406000206000915090508054600181600116156101000203166002900480601f01602080910402602001604051908101604052809291908181526020018280546001816001161561010002031660029004801561156f5780601f106115445761010080835404028352916020019161156f565b820191906000526020600020905b81548152906001019060200180831161155257829003601f168201915b505050505081565b60076020528060005260406000206000915090505481565b60606000826040518082805190602001908083835b602083106115c757805182526020820191506020810190506020830392506115a4565b6001836020036101000a038019825116818451168082178552505050505050905001915050908152602001604051809103902080548060200260200160405190810160405280929190818152602001828054801561164457602002820191906000526020600020905b815481526020019060010190808311611630575b50505050509050919050565b600a600081548092919060010191905055506001836040518082805190602001908083835b602083106116985780518252602082019150602081019050602083039250611675565b6001836020036101000a0380198251168184511680821785525050505050509050019150509081526020016040518091039020600a5490806001815401808255809150509060018203906000526020600020016000909192909190915055508160036000600a548152602001908152602001600020908051906020019061172092919061237d565b508060046000600a548152602001908152602001600020908051906020019061174a92919061237d565b506000600960008681526020019081526020016000205414156117b457600160086000600a54815260200190815260200160002060006101000a81548160ff0219169083151502179055508360076000600a54815260200190815260200160002081905550611810565b600060086000600a54815260200190815260200160002060006101000a81548160ff021916908315150217905550600960008581526020019081526020016000205460076000600a548152602001908152602001600020819055505b600a54600960008681526020019081526020016000208190555050505050565b60096020528060005260406000206000915090505481565b6060600460008381526020019081526020016000208054600181600116156101000203166002900480601f0160208091040260200160405190810160405280929190818152602001828054600181600116156101000203166002900480156118f15780601f106118c6576101008083540402835291602001916118f1565b820191906000526020600020905b8154815290600101906020018083116118d457829003601f168201915b50505050509050919050565b600a600081548092919060010191905055506001836040518082805190602001908083835b602083106119455780518252602082019150602081019050602083039250611922565b6001836020036101000a0380198251168184511680821785525050505050509050019150509081526020016040518091039020600a5490806001815401808255809150509060018203906000526020600020016000909192909190915055508160036000600a54815260200190815260200160002090805190602001906119cd92919061237d565b508060046000600a54815260200190815260200160002090805190602001906119f792919061237d565b50505050565b6060600560008381526020019081526020016000208054600181600116156101000203166002900480601f016020809104026020016040519081016040528092919081815260200182805460018160011615610100020316600290048015611aa65780601f10611a7b57610100808354040283529160200191611aa6565b820191906000526020600020905b815481529060010190602001808311611a8957829003601f168201915b50505050509050919050565b60056020528060005260406000206000915090508054600181600116156101000203166002900480601f016020809104026020016040519081016040528092919081815260200182805460018160011615610100020316600290048015611b5a5780601f10611b2f57610100808354040283529160200191611b5a565b820191906000526020600020905b815481529060010190602001808311611b3d57829003601f168201915b505050505081565b60006008600083815260200190815260200160002060009054906101000a900460ff169050919050565b600a600081548092919060010191905055506002836040518082805190602001908083835b60208310611bd45780518252602082019150602081019050602083039250611bb1565b6001836020036101000a03801982511681845116808217855250505050505090500191505090815260200160405180910390206000858152602001908152602001600020600a5490806001815401808255809150509060018203906000526020600020016000909192909190915055506001836040518082805190602001908083835b60208310611c7a5780518252602082019150602081019050602083039250611c57565b6001836020036101000a0380198251168184511680821785525050505050509050019150509081526020016040518091039020600a5490806001815401808255809150509060018203906000526020600020016000909192909190915055508160036000600a5481526020019081526020016000209080519060200190611d0292919061237d565b508060046000600a5481526020019081526020016000209080519060200190611d2c92919061237d565b5050505050565b60086020528060005260406000206000915054906101000a900460ff1681565b6060600360008381526020019081526020016000208054600181600116156101000203166002900480601f016020809104026020016040519081016040528092919081815260200182805460018160011615610100020316600290048015611dfc5780601f10611dd157610100808354040283529160200191611dfc565b820191906000526020600020905b815481529060010190602001808311611ddf57829003601f168201915b50505050509050919050565b60036020528060005260406000206000915090508054600181600116156101000203166002900480601f016020809104026020016040519081016040528092919081815260200182805460018160011615610100020316600290048015611eb05780601f10611e8557610100808354040283529160200191611eb0565b820191906000526020600020905b815481529060010190602001808311611e9357829003601f168201915b505050505081565b6000828051602081018201805184825260208301602085012081835280955050505050508181548110611ee757fe5b90600052602060002001600091509150505481565b60606001826040518082805190602001908083835b60208310611f345780518252602082019150602081019050602083039250611f11565b6001836020036101000a0380198251168184511680821785525050505050509050019150509081526020016040518091039020805480602002602001604051908101604052809291908181526020018280548015611fb157602002820191906000526020600020905b815481526020019060010190808311611f9d575b50505050509050919050565b600b5481565b60606002836040518082805190602001908083835b60208310611ffb5780518252602082019150602081019050602083039250611fd8565b6001836020036101000a0380198251168184511680821785525050505050509050019150509081526020016040518091039020600083815260200190815260200160002080548060200260200160405190810160405280929190818152602001828054801561208957602002820191906000526020600020905b815481526020019060010190808311612075575b5050505050905092915050565b60018280516020810182018051848252602083016020850120818352809550505050505081815481106120c557fe5b90600052602060002001600091509150505481565b6060600660008381526020019081526020016000208054600181600116156101000203166002900480601f0160208091040260200160405190810160405280929190818152602001828054600181600116156101000203166002900480156121835780601f1061215857610100808354040283529160200191612183565b820191906000526020600020905b81548152906001019060200180831161216657829003601f168201915b50505050509050919050565b600a5481565b600b600081548092919060010191905055506000836040518082805190602001908083835b602083106121dd57805182526020820191506020810190506020830392506121ba565b6001836020036101000a0380198251168184511680821785525050505050509050019150509081526020016040518091039020600b5490806001815401808255809150509060018203906000526020600020016000909192909190915055508160056000600b548152602001908152602001600020908051906020019061226592919061237d565b508060066000600b548152602001908152602001600020908051906020019061228f92919061237d565b50600060096000600b54815260200190815260200160002081905550505050565b600060076000838152602001908152602001600020549050919050565b60046020528060005260406000206000915090508054600181600116156101000203166002900480601f0160208091040260200160405190810160405280929190818152602001828054600181600116156101000203166002900480156123755780601f1061234a57610100808354040283529160200191612375565b820191906000526020600020905b81548152906001019060200180831161235857829003601f168201915b505050505081565b828054600181600116156101000203166002900490600052602060002090601f016020900481019282601f106123be57805160ff19168380011785556123ec565b828001600101855582156123ec579182015b828111156123eb5782518255916020019190600101906123d0565b5b5090506123f991906123fd565b5090565b61241f91905b8082111561241b576000816000905550600101612403565b5090565b9056fea265627a7a72315820680d1c462d793400f6003f3bd8504e7a75e31a138d0803342dd768f9b29684e564736f6c63430005100032",
  "source": "// SPDX-License-Identifier: MIT\r\npragma solidity ^0.5.16;\r\n\r\n// Pointers explanation\r\n// To get pointer from visit to previous visit we:\r\n// 1. Check first if this visit is the first for the patient from isFirstVisOfPatient mapping\r\n//      a. if yes, then VisToPrevVis holds id of patient not of visit.\r\n//      b. if no, then returned holds id of previous visit\r\n// 2. Get the id of whatever it is (having stored the boolean from [1])\r\n// 3. Fetch the Visit/patient and render in front end\r\n\r\ncontract EHR {\r\n    mapping(bytes => uint256[]) public patientRecordsPerHospital;\r\n\r\n    mapping(bytes => uint256[]) public visitRecordsPerHospital;\r\n    mapping(bytes => mapping(uint256 => uint256[])) visitRecordsPerPatientPerHospital;\r\n    mapping(uint256 => string) public Enc_Visits;\r\n    mapping(uint256 => string) public Visits_sig;\r\n    mapping(uint256 => string) public Enc_Patients; // 1 -> akshdasyhdkuasygdousaydo8uasdouashdousahdousahduoashdw890asu\r\n    mapping(uint256 => string) public Patients_sig;\r\n\r\n    mapping(uint256 => uint256) public VisToPrevVis; // links to patient if patPrevVis[patid] ==0\r\n    mapping(uint256 => bool) public isFirstVisOfPatient; //check if patPrevVis[patid] ==0\r\n    mapping(uint256 => uint256) public patPrevVis; // link to most recent visit of that patient\r\n\r\n    uint256 public visitCount;\r\n    uint256 public patientCount;\r\n\r\n    // To get a specific patient\r\n    function getPatientById(uint256 idx) public view returns (string memory) {\r\n        return Enc_Patients[idx];\r\n    }\r\n\r\n    // To get a specific patient's signature\r\n    function getPatientSigById(uint256 idx)\r\n        public\r\n        view\r\n        returns (string memory)\r\n    {\r\n        return Patients_sig[idx];\r\n    }\r\n\r\n    // To get patients added by my hospital\r\n    function getMyPatients(bytes memory addr)\r\n        public\r\n        view\r\n        returns (uint256[] memory ids)\r\n    {\r\n        return patientRecordsPerHospital[addr];\r\n    }\r\n\r\n    // To get a specific visit\r\n    function getVisitById(uint256 idx) public view returns (string memory) {\r\n        return Enc_Visits[idx];\r\n    }\r\n\r\n    // To get a specific visit's signature\r\n    function getVisitSigById(uint256 idx) public view returns (string memory) {\r\n        return Visits_sig[idx];\r\n    }\r\n\r\n    // To get visits added by my hospital\r\n    function getMyVisits(bytes memory addr)\r\n        public\r\n        view\r\n        returns (uint256[] memory ids)\r\n    {\r\n        return visitRecordsPerHospital[addr];\r\n    }\r\n\r\n    function getPatientVisits(bytes memory addr, uint256 patidx)\r\n        public\r\n        view\r\n        returns (uint256[] memory ids)\r\n    {\r\n        return visitRecordsPerPatientPerHospital[addr][patidx];\r\n    }\r\n\r\n    function VisPointsToPatient(uint256 idx) public view returns (bool) {\r\n        return isFirstVisOfPatient[idx];\r\n    }\r\n\r\n    function getPrevVisitById(uint256 idx) public view returns (uint256) {\r\n        return VisToPrevVis[idx];\r\n    }\r\n\r\n    function addPatient(\r\n        bytes memory hospAddress,\r\n        string memory _patientEnc,\r\n        string memory _patientSig\r\n    ) public {\r\n        patientCount++;\r\n        patientRecordsPerHospital[hospAddress].push(patientCount);\r\n        Enc_Patients[patientCount] = _patientEnc;\r\n        Patients_sig[patientCount] = _patientSig;\r\n        patPrevVis[patientCount] = 0;\r\n    }\r\n\r\n    function addVisit(\r\n        uint256 patid,\r\n        bytes memory hospAddress,\r\n        string memory _visitHash,\r\n        string memory _visitSig\r\n    ) public {\r\n        visitCount++;\r\n        visitRecordsPerPatientPerHospital[hospAddress][patid].push(visitCount);\r\n        visitRecordsPerHospital[hospAddress].push(visitCount);\r\n        Enc_Visits[visitCount] = _visitHash;\r\n        Visits_sig[visitCount] = _visitSig;\r\n    }\r\n\r\n    function addVisitOld(\r\n        bytes memory hospAddress,\r\n        string memory _visitHash,\r\n        string memory _visitSig\r\n    ) public {\r\n        visitCount++;\r\n        visitRecordsPerHospital[hospAddress].push(visitCount);\r\n        Enc_Visits[visitCount] = _visitHash;\r\n        Visits_sig[visitCount] = _visitSig;\r\n    }\r\n\r\n    function addVisit2(\r\n        uint256 patid,\r\n        bytes memory hospAddress,\r\n        string memory _visitHash,\r\n        string memory _visitSig\r\n    ) public {\r\n        visitCount++;\r\n        visitRecordsPerHospital[hospAddress].push(visitCount);\r\n        Enc_Visits[visitCount] = _visitHash;\r\n        Visits_sig[visitCount] = _visitSig;\r\n\r\n        if (patPrevVis[patid] == 0) {\r\n            isFirstVisOfPatient[visitCount] = true;\r\n            VisToPrevVis[visitCount] = patid;\r\n        } else {\r\n            isFirstVisOfPatient[visitCount] = false;\r\n            VisToPrevVis[visitCount] = patPrevVis[patid];\r\n        }\r\n        patPrevVis[patid] = visitCount;\r\n    }\r\n}\r\n",
  "sourcePath": "E:\\GUC\\Sem 10\\Security\\project\\bc_security\\src\\contracts\\EHR.sol",
  "compiler": {
    "name": "solc",
    "version": "0.5.16+commit.9c3226ce.Emscripten.clang"
  },
  "schemaVersion": "3.4.7",
  "updatedAt": "2022-06-14T07:01:00.663Z",
  "networkType": "ethereum",
  "devdoc": {
    "methods": {}
  },
  "userdoc": {
    "methods": {}
  }
}