{
  "contractName": "EHR",
  "abi": [
    {
      "constant": true,
      "inputs": [
        {
          "internalType": "uint256",
          "name": "",
          "type": "uint256"
        }
      ],
      "name": "Enc_Patients",
      "outputs": [
        {
          "internalType": "string",
          "name": "",
          "type": "string"
        }
      ],
      "payable": false,
      "stateMutability": "view",
      "type": "function"
    },
    {
      "constant": true,
      "inputs": [
        {
          "internalType": "uint256",
          "name": "",
          "type": "uint256"
        }
      ],
      "name": "Enc_Visits",
      "outputs": [
        {
          "internalType": "string",
          "name": "",
          "type": "string"
        }
      ],
      "payable": false,
      "stateMutability": "view",
      "type": "function"
    },
    {
      "constant": true,
      "inputs": [
        {
          "internalType": "uint256",
          "name": "",
          "type": "uint256"
        }
      ],
      "name": "Patients_sig",
      "outputs": [
        {
          "internalType": "string",
          "name": "",
          "type": "string"
        }
      ],
      "payable": false,
      "stateMutability": "view",
      "type": "function"
    },
    {
      "constant": true,
      "inputs": [
        {
          "internalType": "uint256",
          "name": "",
          "type": "uint256"
        }
      ],
      "name": "Visits_sig",
      "outputs": [
        {
          "internalType": "string",
          "name": "",
          "type": "string"
        }
      ],
      "payable": false,
      "stateMutability": "view",
      "type": "function"
    },
    {
      "constant": true,
      "inputs": [],
      "name": "patientCount",
      "outputs": [
        {
          "internalType": "uint256",
          "name": "",
          "type": "uint256"
        }
      ],
      "payable": false,
      "stateMutability": "view",
      "type": "function"
    },
    {
      "constant": true,
      "inputs": [
        {
          "internalType": "bytes",
          "name": "",
          "type": "bytes"
        },
        {
          "internalType": "uint256",
          "name": "",
          "type": "uint256"
        }
      ],
      "name": "patientRecordsPerHospital",
      "outputs": [
        {
          "internalType": "uint256",
          "name": "",
          "type": "uint256"
        }
      ],
      "payable": false,
      "stateMutability": "view",
      "type": "function"
    },
    {
      "constant": true,
      "inputs": [],
      "name": "visitCount",
      "outputs": [
        {
          "internalType": "uint256",
          "name": "",
          "type": "uint256"
        }
      ],
      "payable": false,
      "stateMutability": "view",
      "type": "function"
    },
    {
      "constant": true,
      "inputs": [
        {
          "internalType": "bytes",
          "name": "",
          "type": "bytes"
        },
        {
          "internalType": "uint256",
          "name": "",
          "type": "uint256"
        }
      ],
      "name": "visitRecordsPerHospital",
      "outputs": [
        {
          "internalType": "uint256",
          "name": "",
          "type": "uint256"
        }
      ],
      "payable": false,
      "stateMutability": "view",
      "type": "function"
    },
    {
      "constant": true,
      "inputs": [
        {
          "internalType": "uint256",
          "name": "idx",
          "type": "uint256"
        }
      ],
      "name": "getPatientById",
      "outputs": [
        {
          "internalType": "string",
          "name": "",
          "type": "string"
        }
      ],
      "payable": false,
      "stateMutability": "view",
      "type": "function"
    },
    {
      "constant": true,
      "inputs": [
        {
          "internalType": "uint256",
          "name": "idx",
          "type": "uint256"
        }
      ],
      "name": "getPatientSigById",
      "outputs": [
        {
          "internalType": "string",
          "name": "",
          "type": "string"
        }
      ],
      "payable": false,
      "stateMutability": "view",
      "type": "function"
    },
    {
      "constant": true,
      "inputs": [
        {
          "internalType": "bytes",
          "name": "addr",
          "type": "bytes"
        }
      ],
      "name": "getMyPatients",
      "outputs": [
        {
          "internalType": "uint256[]",
          "name": "ids",
          "type": "uint256[]"
        }
      ],
      "payable": false,
      "stateMutability": "view",
      "type": "function"
    },
    {
      "constant": true,
      "inputs": [
        {
          "internalType": "uint256",
          "name": "idx",
          "type": "uint256"
        }
      ],
      "name": "getVisitById",
      "outputs": [
        {
          "internalType": "string",
          "name": "",
          "type": "string"
        }
      ],
      "payable": false,
      "stateMutability": "view",
      "type": "function"
    },
    {
      "constant": true,
      "inputs": [
        {
          "internalType": "uint256",
          "name": "idx",
          "type": "uint256"
        }
      ],
      "name": "getVisitSigById",
      "outputs": [
        {
          "internalType": "string",
          "name": "",
          "type": "string"
        }
      ],
      "payable": false,
      "stateMutability": "view",
      "type": "function"
    },
    {
      "constant": true,
      "inputs": [
        {
          "internalType": "bytes",
          "name": "addr",
          "type": "bytes"
        }
      ],
      "name": "getMyVisits",
      "outputs": [
        {
          "internalType": "uint256[]",
          "name": "ids",
          "type": "uint256[]"
        }
      ],
      "payable": false,
      "stateMutability": "view",
      "type": "function"
    },
    {
      "constant": false,
      "inputs": [
        {
          "internalType": "bytes",
          "name": "hospAddress",
          "type": "bytes"
        },
        {
          "internalType": "string",
          "name": "_patientEnc",
          "type": "string"
        },
        {
          "internalType": "string",
          "name": "_patientSig",
          "type": "string"
        }
      ],
      "name": "addPatient",
      "outputs": [],
      "payable": false,
      "stateMutability": "nonpayable",
      "type": "function"
    },
    {
      "constant": false,
      "inputs": [
        {
          "internalType": "bytes",
          "name": "hospAddress",
          "type": "bytes"
        },
        {
          "internalType": "string",
          "name": "_visitHash",
          "type": "string"
        },
        {
          "internalType": "string",
          "name": "_visitSig",
          "type": "string"
        }
      ],
      "name": "addVisit",
      "outputs": [],
      "payable": false,
      "stateMutability": "nonpayable",
      "type": "function"
    }
  ],
  "bytecode": "0x608060405234801561001057600080fd5b506118a1806100206000396000f3fe608060405234801561001057600080fd5b50600436106101005760003560e01c8063977b994611610097578063d6f7137211610066578063d6f7137214610ac8578063e0e4367e14610b6f578063e22d516f14610b8d578063ea3574f414610d7657610100565b8063977b9946146107e85780639f9f902e146108c1578063a0303c41146109d1578063a8b70771146109ef57610100565b806367a36e0b116100d357806367a36e0b1461054c57806374f5f3ff146105f3578063916f19341461069a57806392cd88a01461074157610100565b80630a13639a14610105578063150770f3146101ac57806329565c35146102bc5780633fef9650146104a5575b600080fd5b6101316004803603602081101561011b57600080fd5b8101908080359060200190929190505050610e1d565b6040518080602001828103825283818151815260200191508051906020019080838360005b83811015610171578082015181840152602081019050610156565b50505050905090810190601f16801561019e5780820380516001836020036101000a031916815260200191505b509250505060405180910390f35b610265600480360360208110156101c257600080fd5b81019080803590602001906401000000008111156101df57600080fd5b8201836020820111156101f157600080fd5b8035906020019184600183028401116401000000008311171561021357600080fd5b91908080601f016020809104026020016040519081016040528093929190818152602001838380828437600081840152601f19601f820116905080830192505050505050509192919290505050610ecd565b6040518080602001828103825283818151815260200191508051906020019060200280838360005b838110156102a857808201518184015260208101905061028d565b505050509050019250505060405180910390f35b6104a3600480360360608110156102d257600080fd5b81019080803590602001906401000000008111156102ef57600080fd5b82018360208201111561030157600080fd5b8035906020019184600183028401116401000000008311171561032357600080fd5b91908080601f016020809104026020016040519081016040528093929190818152602001838380828437600081840152601f19601f8201169050808301925050505050505091929192908035906020019064010000000081111561038657600080fd5b82018360208201111561039857600080fd5b803590602001918460018302840111640100000000831117156103ba57600080fd5b91908080601f016020809104026020016040519081016040528093929190818152602001838380828437600081840152601f19601f8201169050808301925050505050505091929192908035906020019064010000000081111561041d57600080fd5b82018360208201111561042f57600080fd5b8035906020019184600183028401116401000000008311171561045157600080fd5b91908080601f016020809104026020016040519081016040528093929190818152602001838380828437600081840152601f19601f820116905080830192505050505050509192919290505050610f8e565b005b6104d1600480360360208110156104bb57600080fd5b810190808035906020019092919050505061108e565b6040518080602001828103825283818151815260200191508051906020019080838360005b838110156105115780820151818401526020810190506104f6565b50505050905090810190601f16801561053e5780820380516001836020036101000a031916815260200191505b509250505060405180910390f35b6105786004803603602081101561056257600080fd5b8101908080359060200190929190505050611143565b6040518080602001828103825283818151815260200191508051906020019080838360005b838110156105b857808201518184015260208101905061059d565b50505050905090810190601f1680156105e55780820380516001836020036101000a031916815260200191505b509250505060405180910390f35b61061f6004803603602081101561060957600080fd5b81019080803590602001909291905050506111f8565b6040518080602001828103825283818151815260200191508051906020019080838360005b8381101561065f578082015181840152602081019050610644565b50505050905090810190601f16801561068c5780820380516001836020036101000a031916815260200191505b509250505060405180910390f35b6106c6600480360360208110156106b057600080fd5b81019080803590602001909291905050506112a8565b6040518080602001828103825283818151815260200191508051906020019080838360005b838110156107065780820151818401526020810190506106eb565b50505050905090810190601f1680156107335780820380516001836020036101000a031916815260200191505b509250505060405180910390f35b61076d6004803603602081101561075757600080fd5b810190808035906020019092919050505061135d565b6040518080602001828103825283818151815260200191508051906020019080838360005b838110156107ad578082015181840152602081019050610792565b50505050905090810190601f1680156107da5780820380516001836020036101000a031916815260200191505b509250505060405180910390f35b6108ab600480360360408110156107fe57600080fd5b810190808035906020019064010000000081111561081b57600080fd5b82018360208201111561082d57600080fd5b8035906020019184600183028401116401000000008311171561084f57600080fd5b91908080601f016020809104026020016040519081016040528093929190818152602001838380828437600081840152601f19601f8201169050808301925050505050505091929192908035906020019092919050505061140d565b6040518082815260200191505060405180910390f35b61097a600480360360208110156108d757600080fd5b81019080803590602001906401000000008111156108f457600080fd5b82018360208201111561090657600080fd5b8035906020019184600183028401116401000000008311171561092857600080fd5b91908080601f016020809104026020016040519081016040528093929190818152602001838380828437600081840152601f19601f820116905080830192505050505050509192919290505050611451565b6040518080602001828103825283818151815260200191508051906020019060200280838360005b838110156109bd5780820151818401526020810190506109a2565b505050509050019250505060405180910390f35b6109d9611512565b6040518082815260200191505060405180910390f35b610ab260048036036040811015610a0557600080fd5b8101908080359060200190640100000000811115610a2257600080fd5b820183602082011115610a3457600080fd5b80359060200191846001830284011164010000000083111715610a5657600080fd5b91908080601f016020809104026020016040519081016040528093929190818152602001838380828437600081840152601f19601f82011690508083019250505050505050919291929080359060200190929190505050611518565b6040518082815260200191505060405180910390f35b610af460048036036020811015610ade57600080fd5b810190808035906020019092919050505061155c565b6040518080602001828103825283818151815260200191508051906020019080838360005b83811015610b34578082015181840152602081019050610b19565b50505050905090810190601f168015610b615780820380516001836020036101000a031916815260200191505b509250505060405180910390f35b610b77611611565b6040518082815260200191505060405180910390f35b610d7460048036036060811015610ba357600080fd5b8101908080359060200190640100000000811115610bc057600080fd5b820183602082011115610bd257600080fd5b80359060200191846001830284011164010000000083111715610bf457600080fd5b91908080601f016020809104026020016040519081016040528093929190818152602001838380828437600081840152601f19601f82011690508083019250505050505050919291929080359060200190640100000000811115610c5757600080fd5b820183602082011115610c6957600080fd5b80359060200191846001830284011164010000000083111715610c8b57600080fd5b91908080601f016020809104026020016040519081016040528093929190818152602001838380828437600081840152601f19601f82011690508083019250505050505050919291929080359060200190640100000000811115610cee57600080fd5b820183602082011115610d0057600080fd5b80359060200191846001830284011164010000000083111715610d2257600080fd5b91908080601f016020809104026020016040519081016040528093929190818152602001838380828437600081840152601f19601f820116905080830192505050505050509192919290505050611617565b005b610da260048036036020811015610d8c57600080fd5b8101908080359060200190929190505050611717565b6040518080602001828103825283818151815260200191508051906020019080838360005b83811015610de2578082015181840152602081019050610dc7565b50505050905090810190601f168015610e0f5780820380516001836020036101000a031916815260200191505b509250505060405180910390f35b60056020528060005260406000206000915090508054600181600116156101000203166002900480601f016020809104026020016040519081016040528092919081815260200182805460018160011615610100020316600290048015610ec55780601f10610e9a57610100808354040283529160200191610ec5565b820191906000526020600020905b815481529060010190602001808311610ea857829003601f168201915b505050505081565b60606000826040518082805190602001908083835b60208310610f055780518252602082019150602081019050602083039250610ee2565b6001836020036101000a0380198251168184511680821785525050505050509050019150509081526020016040518091039020805480602002602001604051908101604052809291908181526020018280548015610f8257602002820191906000526020600020905b815481526020019060010190808311610f6e575b50505050509050919050565b6006600081548092919060010191905055506001836040518082805190602001908083835b60208310610fd65780518252602082019150602081019050602083039250610fb3565b6001836020036101000a0380198251168184511680821785525050505050509050019150509081526020016040518091039020600654908060018154018082558091505090600182039060005260206000200160009091929091909150555081600260006006548152602001908152602001600020908051906020019061105e9291906117c7565b508060036000600654815260200190815260200160002090805190602001906110889291906117c7565b50505050565b6060600360008381526020019081526020016000208054600181600116156101000203166002900480601f0160208091040260200160405190810160405280929190818152602001828054600181600116156101000203166002900480156111375780601f1061110c57610100808354040283529160200191611137565b820191906000526020600020905b81548152906001019060200180831161111a57829003601f168201915b50505050509050919050565b6060600460008381526020019081526020016000208054600181600116156101000203166002900480601f0160208091040260200160405190810160405280929190818152602001828054600181600116156101000203166002900480156111ec5780601f106111c1576101008083540402835291602001916111ec565b820191906000526020600020905b8154815290600101906020018083116111cf57829003601f168201915b50505050509050919050565b60046020528060005260406000206000915090508054600181600116156101000203166002900480601f0160208091040260200160405190810160405280929190818152602001828054600181600116156101000203166002900480156112a05780601f10611275576101008083540402835291602001916112a0565b820191906000526020600020905b81548152906001019060200180831161128357829003601f168201915b505050505081565b6060600260008381526020019081526020016000208054600181600116156101000203166002900480601f0160208091040260200160405190810160405280929190818152602001828054600181600116156101000203166002900480156113515780601f1061132657610100808354040283529160200191611351565b820191906000526020600020905b81548152906001019060200180831161133457829003601f168201915b50505050509050919050565b60026020528060005260406000206000915090508054600181600116156101000203166002900480601f0160208091040260200160405190810160405280929190818152602001828054600181600116156101000203166002900480156114055780601f106113da57610100808354040283529160200191611405565b820191906000526020600020905b8154815290600101906020018083116113e857829003601f168201915b505050505081565b600082805160208101820180518482526020830160208501208183528095505050505050818154811061143c57fe5b90600052602060002001600091509150505481565b60606000826040518082805190602001908083835b602083106114895780518252602082019150602081019050602083039250611466565b6001836020036101000a038019825116818451168082178552505050505050905001915050908152602001604051809103902080548060200260200160405190810160405280929190818152602001828054801561150657602002820191906000526020600020905b8154815260200190600101908083116114f2575b50505050509050919050565b60075481565b600182805160208101820180518482526020830160208501208183528095505050505050818154811061154757fe5b90600052602060002001600091509150505481565b6060600560008381526020019081526020016000208054600181600116156101000203166002900480601f0160208091040260200160405190810160405280929190818152602001828054600181600116156101000203166002900480156116055780601f106115da57610100808354040283529160200191611605565b820191906000526020600020905b8154815290600101906020018083116115e857829003601f168201915b50505050509050919050565b60065481565b6007600081548092919060010191905055506000836040518082805190602001908083835b6020831061165f578051825260208201915060208101905060208303925061163c565b6001836020036101000a038019825116818451168082178552505050505050905001915050908152602001604051809103902060075490806001815401808255809150509060018203906000526020600020016000909192909190915055508160046000600754815260200190815260200160002090805190602001906116e79291906117c7565b508060056000600754815260200190815260200160002090805190602001906117119291906117c7565b50505050565b60036020528060005260406000206000915090508054600181600116156101000203166002900480601f0160208091040260200160405190810160405280929190818152602001828054600181600116156101000203166002900480156117bf5780601f10611794576101008083540402835291602001916117bf565b820191906000526020600020905b8154815290600101906020018083116117a257829003601f168201915b505050505081565b828054600181600116156101000203166002900490600052602060002090601f016020900481019282601f1061180857805160ff1916838001178555611836565b82800160010185558215611836579182015b8281111561183557825182559160200191906001019061181a565b5b5090506118439190611847565b5090565b61186991905b8082111561186557600081600090555060010161184d565b5090565b9056fea265627a7a723158204e3750b15fe635d62e91c2ec0feae3ebcd3adaa37fc029cd989936a9ca4f455164736f6c63430005100032",
  "source": "// SPDX-License-Identifier: MIT\r\npragma solidity ^0.5.16;\r\n\r\ncontract EHR {\r\n    mapping(bytes => uint256[]) public patientRecordsPerHospital;\r\n    mapping(bytes => uint256[]) public visitRecordsPerHospital;\r\n    mapping(uint256 => string) public Enc_Visits;\r\n    mapping(uint256 => string) public Visits_sig;\r\n    mapping(uint256 => string) public Enc_Patients; // 1 -> akshdasyhdkuasygdousaydo8uasdouashdousahdousahduoashdw890asu\r\n    mapping(uint256 => string) public Patients_sig;\r\n    uint256 public visitCount;\r\n    uint256 public patientCount;\r\n\r\n    function getPatientById(uint256 idx) public view returns (string memory) {\r\n        return Enc_Patients[idx];\r\n    }\r\n\r\n    function getPatientSigById(uint256 idx)\r\n        public\r\n        view\r\n        returns (string memory)\r\n    {\r\n        return Patients_sig[idx];\r\n    }\r\n\r\n    function getMyPatients(bytes memory addr)\r\n        public\r\n        view\r\n        returns (uint256[] memory ids)\r\n    {\r\n        return patientRecordsPerHospital[addr];\r\n    }\r\n\r\n    function getVisitById(uint256 idx) public view returns (string memory) {\r\n        return Enc_Visits[idx];\r\n    }\r\n\r\n    function getVisitSigById(uint256 idx) public view returns (string memory) {\r\n        return Visits_sig[idx];\r\n    }\r\n\r\n    function getMyVisits(bytes memory addr)\r\n        public\r\n        view\r\n        returns (uint256[] memory ids)\r\n    {\r\n        return patientRecordsPerHospital[addr];\r\n    }\r\n\r\n    function addPatient(\r\n        bytes memory hospAddress,\r\n        string memory _patientEnc,\r\n        string memory _patientSig\r\n    ) public {\r\n        patientCount++;\r\n        patientRecordsPerHospital[hospAddress].push(patientCount);\r\n        Enc_Patients[patientCount] = _patientEnc;\r\n        Patients_sig[patientCount] = _patientSig;\r\n    }\r\n\r\n    function addVisit(\r\n        bytes memory hospAddress,\r\n        string memory _visitHash,\r\n        string memory _visitSig\r\n    ) public {\r\n        visitCount++;\r\n        visitRecordsPerHospital[hospAddress].push(visitCount);\r\n        Enc_Visits[visitCount] = _visitHash;\r\n        Visits_sig[visitCount] = _visitSig;\r\n    }\r\n}\r\n",
  "sourcePath": "E:\\GUC\\Sem 10\\Security\\project\\bc_security\\src\\contracts\\EHR.sol",
  "compiler": {
    "name": "solc",
    "version": "0.5.16+commit.9c3226ce.Emscripten.clang"
  },
  "schemaVersion": "3.4.7",
  "updatedAt": "2022-06-14T05:24:22.332Z",
  "networkType": "ethereum",
  "devdoc": {
    "methods": {}
  },
  "userdoc": {
    "methods": {}
  }
}