{
  "contractName": "EHR",
  "abi": [
    {
      "constant": true,
      "inputs": [
        {
          "internalType": "uint256",
          "name": "",
          "type": "uint256"
        }
      ],
      "name": "Enc_Patients",
      "outputs": [
        {
          "internalType": "string",
          "name": "",
          "type": "string"
        }
      ],
      "payable": false,
      "stateMutability": "view",
      "type": "function"
    },
    {
      "constant": true,
      "inputs": [
        {
          "internalType": "uint256",
          "name": "",
          "type": "uint256"
        }
      ],
      "name": "Enc_Visits",
      "outputs": [
        {
          "internalType": "string",
          "name": "",
          "type": "string"
        }
      ],
      "payable": false,
      "stateMutability": "view",
      "type": "function"
    },
    {
      "constant": true,
      "inputs": [
        {
          "internalType": "uint256",
          "name": "",
          "type": "uint256"
        }
      ],
      "name": "Patients_sig",
      "outputs": [
        {
          "internalType": "string",
          "name": "",
          "type": "string"
        }
      ],
      "payable": false,
      "stateMutability": "view",
      "type": "function"
    },
    {
      "constant": true,
      "inputs": [
        {
          "internalType": "uint256",
          "name": "",
          "type": "uint256"
        }
      ],
      "name": "Visits_sig",
      "outputs": [
        {
          "internalType": "string",
          "name": "",
          "type": "string"
        }
      ],
      "payable": false,
      "stateMutability": "view",
      "type": "function"
    },
    {
      "constant": true,
      "inputs": [],
      "name": "patientCount",
      "outputs": [
        {
          "internalType": "uint256",
          "name": "",
          "type": "uint256"
        }
      ],
      "payable": false,
      "stateMutability": "view",
      "type": "function"
    },
    {
      "constant": true,
      "inputs": [
        {
          "internalType": "string",
          "name": "",
          "type": "string"
        },
        {
          "internalType": "uint256",
          "name": "",
          "type": "uint256"
        }
      ],
      "name": "patientRecordsPerHospital",
      "outputs": [
        {
          "internalType": "uint256",
          "name": "",
          "type": "uint256"
        }
      ],
      "payable": false,
      "stateMutability": "view",
      "type": "function"
    },
    {
      "constant": true,
      "inputs": [],
      "name": "visitCount",
      "outputs": [
        {
          "internalType": "uint256",
          "name": "",
          "type": "uint256"
        }
      ],
      "payable": false,
      "stateMutability": "view",
      "type": "function"
    },
    {
      "constant": true,
      "inputs": [
        {
          "internalType": "string",
          "name": "",
          "type": "string"
        },
        {
          "internalType": "uint256",
          "name": "",
          "type": "uint256"
        }
      ],
      "name": "visitRecordsPerHospital",
      "outputs": [
        {
          "internalType": "uint256",
          "name": "",
          "type": "uint256"
        }
      ],
      "payable": false,
      "stateMutability": "view",
      "type": "function"
    },
    {
      "constant": true,
      "inputs": [
        {
          "internalType": "uint256",
          "name": "idx",
          "type": "uint256"
        }
      ],
      "name": "getPatientById",
      "outputs": [
        {
          "internalType": "string",
          "name": "",
          "type": "string"
        }
      ],
      "payable": false,
      "stateMutability": "view",
      "type": "function"
    },
    {
      "constant": false,
      "inputs": [
        {
          "internalType": "string",
          "name": "hospAddress",
          "type": "string"
        },
        {
          "internalType": "string",
          "name": "_patientEnc",
          "type": "string"
        },
        {
          "internalType": "string",
          "name": "_patientSig",
          "type": "string"
        }
      ],
      "name": "addPatient",
      "outputs": [],
      "payable": false,
      "stateMutability": "nonpayable",
      "type": "function"
    },
    {
      "constant": false,
      "inputs": [
        {
          "internalType": "string",
          "name": "hospAddress",
          "type": "string"
        },
        {
          "internalType": "string",
          "name": "_visitHash",
          "type": "string"
        },
        {
          "internalType": "string",
          "name": "_visitSig",
          "type": "string"
        }
      ],
      "name": "addVisit",
      "outputs": [],
      "payable": false,
      "stateMutability": "nonpayable",
      "type": "function"
    }
  ],
  "bytecode": "0x608060405234801561001057600080fd5b50611094806100206000396000f3fe608060405234801561001057600080fd5b50600436106100a95760003560e01c806392cd88a01161007157806392cd88a014610675578063a0303c411461071c578063aa3a7ab91461073a578063ace0268514610813578063e0e4367e146108ec578063ea3574f41461090a576100a9565b80630a13639a146100ae5780630c380fc914610155578063364b73841461033e57806367a36e0b1461052757806374f5f3ff146105ce575b600080fd5b6100da600480360360208110156100c457600080fd5b81019080803590602001909291905050506109b1565b6040518080602001828103825283818151815260200191508051906020019080838360005b8381101561011a5780820151818401526020810190506100ff565b50505050905090810190601f1680156101475780820380516001836020036101000a031916815260200191505b509250505060405180910390f35b61033c6004803603606081101561016b57600080fd5b810190808035906020019064010000000081111561018857600080fd5b82018360208201111561019a57600080fd5b803590602001918460018302840111640100000000831117156101bc57600080fd5b91908080601f016020809104026020016040519081016040528093929190818152602001838380828437600081840152601f19601f8201169050808301925050505050505091929192908035906020019064010000000081111561021f57600080fd5b82018360208201111561023157600080fd5b8035906020019184600183028401116401000000008311171561025357600080fd5b91908080601f016020809104026020016040519081016040528093929190818152602001838380828437600081840152601f19601f820116905080830192505050505050509192919290803590602001906401000000008111156102b657600080fd5b8201836020820111156102c857600080fd5b803590602001918460018302840111640100000000831117156102ea57600080fd5b91908080601f016020809104026020016040519081016040528093929190818152602001838380828437600081840152601f19601f820116905080830192505050505050509192919290505050610a61565b005b6105256004803603606081101561035457600080fd5b810190808035906020019064010000000081111561037157600080fd5b82018360208201111561038357600080fd5b803590602001918460018302840111640100000000831117156103a557600080fd5b91908080601f016020809104026020016040519081016040528093929190818152602001838380828437600081840152601f19601f8201169050808301925050505050505091929192908035906020019064010000000081111561040857600080fd5b82018360208201111561041a57600080fd5b8035906020019184600183028401116401000000008311171561043c57600080fd5b91908080601f016020809104026020016040519081016040528093929190818152602001838380828437600081840152601f19601f8201169050808301925050505050505091929192908035906020019064010000000081111561049f57600080fd5b8201836020820111156104b157600080fd5b803590602001918460018302840111640100000000831117156104d357600080fd5b91908080601f016020809104026020016040519081016040528093929190818152602001838380828437600081840152601f19601f820116905080830192505050505050509192919290505050610b61565b005b6105536004803603602081101561053d57600080fd5b8101908080359060200190929190505050610c61565b6040518080602001828103825283818151815260200191508051906020019080838360005b83811015610593578082015181840152602081019050610578565b50505050905090810190601f1680156105c05780820380516001836020036101000a031916815260200191505b509250505060405180910390f35b6105fa600480360360208110156105e457600080fd5b8101908080359060200190929190505050610d16565b6040518080602001828103825283818151815260200191508051906020019080838360005b8381101561063a57808201518184015260208101905061061f565b50505050905090810190601f1680156106675780820380516001836020036101000a031916815260200191505b509250505060405180910390f35b6106a16004803603602081101561068b57600080fd5b8101908080359060200190929190505050610dc6565b6040518080602001828103825283818151815260200191508051906020019080838360005b838110156106e15780820151818401526020810190506106c6565b50505050905090810190601f16801561070e5780820380516001836020036101000a031916815260200191505b509250505060405180910390f35b610724610e76565b6040518082815260200191505060405180910390f35b6107fd6004803603604081101561075057600080fd5b810190808035906020019064010000000081111561076d57600080fd5b82018360208201111561077f57600080fd5b803590602001918460018302840111640100000000831117156107a157600080fd5b91908080601f016020809104026020016040519081016040528093929190818152602001838380828437600081840152601f19601f82011690508083019250505050505050919291929080359060200190929190505050610e7c565b6040518082815260200191505060405180910390f35b6108d66004803603604081101561082957600080fd5b810190808035906020019064010000000081111561084657600080fd5b82018360208201111561085857600080fd5b8035906020019184600183028401116401000000008311171561087a57600080fd5b91908080601f016020809104026020016040519081016040528093929190818152602001838380828437600081840152601f19601f82011690508083019250505050505050919291929080359060200190929190505050610ec0565b6040518082815260200191505060405180910390f35b6108f4610f04565b6040518082815260200191505060405180910390f35b6109366004803603602081101561092057600080fd5b8101908080359060200190929190505050610f0a565b6040518080602001828103825283818151815260200191508051906020019080838360005b8381101561097657808201518184015260208101905061095b565b50505050905090810190601f1680156109a35780820380516001836020036101000a031916815260200191505b509250505060405180910390f35b60056020528060005260406000206000915090508054600181600116156101000203166002900480601f016020809104026020016040519081016040528092919081815260200182805460018160011615610100020316600290048015610a595780601f10610a2e57610100808354040283529160200191610a59565b820191906000526020600020905b815481529060010190602001808311610a3c57829003601f168201915b505050505081565b6007600081548092919060010191905055506000836040518082805190602001908083835b60208310610aa95780518252602082019150602081019050602083039250610a86565b6001836020036101000a03801982511681845116808217855250505050505090500191505090815260200160405180910390206007549080600181540180825580915050906001820390600052602060002001600090919290919091505550816004600060075481526020019081526020016000209080519060200190610b31929190610fba565b50806005600060075481526020019081526020016000209080519060200190610b5b929190610fba565b50505050565b6006600081548092919060010191905055506001836040518082805190602001908083835b60208310610ba95780518252602082019150602081019050602083039250610b86565b6001836020036101000a03801982511681845116808217855250505050505090500191505090815260200160405180910390206006549080600181540180825580915050906001820390600052602060002001600090919290919091505550816002600060065481526020019081526020016000209080519060200190610c31929190610fba565b50806003600060065481526020019081526020016000209080519060200190610c5b929190610fba565b50505050565b6060600460008381526020019081526020016000208054600181600116156101000203166002900480601f016020809104026020016040519081016040528092919081815260200182805460018160011615610100020316600290048015610d0a5780601f10610cdf57610100808354040283529160200191610d0a565b820191906000526020600020905b815481529060010190602001808311610ced57829003601f168201915b50505050509050919050565b60046020528060005260406000206000915090508054600181600116156101000203166002900480601f016020809104026020016040519081016040528092919081815260200182805460018160011615610100020316600290048015610dbe5780601f10610d9357610100808354040283529160200191610dbe565b820191906000526020600020905b815481529060010190602001808311610da157829003601f168201915b505050505081565b60026020528060005260406000206000915090508054600181600116156101000203166002900480601f016020809104026020016040519081016040528092919081815260200182805460018160011615610100020316600290048015610e6e5780601f10610e4357610100808354040283529160200191610e6e565b820191906000526020600020905b815481529060010190602001808311610e5157829003601f168201915b505050505081565b60075481565b6001828051602081018201805184825260208301602085012081835280955050505050508181548110610eab57fe5b90600052602060002001600091509150505481565b6000828051602081018201805184825260208301602085012081835280955050505050508181548110610eef57fe5b90600052602060002001600091509150505481565b60065481565b60036020528060005260406000206000915090508054600181600116156101000203166002900480601f016020809104026020016040519081016040528092919081815260200182805460018160011615610100020316600290048015610fb25780601f10610f8757610100808354040283529160200191610fb2565b820191906000526020600020905b815481529060010190602001808311610f9557829003601f168201915b505050505081565b828054600181600116156101000203166002900490600052602060002090601f016020900481019282601f10610ffb57805160ff1916838001178555611029565b82800160010185558215611029579182015b8281111561102857825182559160200191906001019061100d565b5b509050611036919061103a565b5090565b61105c91905b80821115611058576000816000905550600101611040565b5090565b9056fea265627a7a72315820a4905badac4f44ec67b9bbc7670efcb59e97c2572767e9789a33d175b64d825e64736f6c63430005100032",
  "source": "// SPDX-License-Identifier: MIT\r\npragma solidity ^0.5.16;\r\n\r\ncontract EHR {\r\n    mapping(string => uint256[]) public patientRecordsPerHospital;\r\n    mapping(string => uint256[]) public visitRecordsPerHospital;\r\n    mapping(uint256 => string) public Enc_Visits;\r\n    mapping(uint256 => string) public Visits_sig;\r\n    mapping(uint256 => string) public Enc_Patients; // 1 -> akshdasyhdkuasygdousaydo8uasdouashdousahdousahduoashdw890asu\r\n    mapping(uint256 => string) public Patients_sig;\r\n    uint256 public visitCount;\r\n    uint256 public patientCount;\r\n\r\n    function getPatientById(uint256 idx) public view returns (string memory) {\r\n        return Enc_Patients[idx];\r\n    }\r\n\r\n    function addPatient(\r\n        string memory hospAddress,\r\n        string memory _patientEnc,\r\n        string memory _patientSig\r\n    ) public {\r\n        patientCount++;\r\n        patientRecordsPerHospital[hospAddress].push(patientCount);\r\n        // 0xE1b726AE79aEaf755e1F38723d9f87e1c76a4C9B --> [1,2,3,7,9]\r\n        // 0xA3C726AwWE434343as1F38723d9f87e1c76a4C9B --> [4,5,6,8]\r\n        Enc_Patients[patientCount] = _patientEnc;\r\n        Patients_sig[patientCount] = _patientSig;\r\n    }\r\n\r\n    function addVisit(\r\n        string memory hospAddress,\r\n        string memory _visitHash,\r\n        string memory _visitSig\r\n    ) public {\r\n        visitCount++;\r\n        visitRecordsPerHospital[hospAddress].push(visitCount);\r\n        Enc_Visits[visitCount] = _visitHash;\r\n        Visits_sig[visitCount] = _visitSig;\r\n    }\r\n}\r\n",
  "sourcePath": "E:\\GUC\\Sem 10\\Security\\project\\bc_security\\src\\contracts\\EHR.sol",
  "compiler": {
    "name": "solc",
    "version": "0.5.16+commit.9c3226ce.Emscripten.clang"
  },
  "schemaVersion": "3.4.7",
  "updatedAt": "2022-06-14T00:28:09.688Z",
  "networkType": "ethereum",
  "devdoc": {
    "methods": {}
  },
  "userdoc": {
    "methods": {}
  }
}