{
  "contractName": "EHR",
  "abi": [
    {
      "constant": true,
      "inputs": [
        {
          "internalType": "uint256",
          "name": "",
          "type": "uint256"
        }
      ],
      "name": "Enc_Patients",
      "outputs": [
        {
          "internalType": "string",
          "name": "",
          "type": "string"
        }
      ],
      "payable": false,
      "stateMutability": "view",
      "type": "function"
    },
    {
      "constant": true,
      "inputs": [
        {
          "internalType": "uint256",
          "name": "",
          "type": "uint256"
        }
      ],
      "name": "Enc_Visits",
      "outputs": [
        {
          "internalType": "string",
          "name": "",
          "type": "string"
        }
      ],
      "payable": false,
      "stateMutability": "view",
      "type": "function"
    },
    {
      "constant": true,
      "inputs": [
        {
          "internalType": "uint256",
          "name": "",
          "type": "uint256"
        }
      ],
      "name": "Patients_sig",
      "outputs": [
        {
          "internalType": "string",
          "name": "",
          "type": "string"
        }
      ],
      "payable": false,
      "stateMutability": "view",
      "type": "function"
    },
    {
      "constant": true,
      "inputs": [
        {
          "internalType": "uint256",
          "name": "",
          "type": "uint256"
        }
      ],
      "name": "Visits_sig",
      "outputs": [
        {
          "internalType": "string",
          "name": "",
          "type": "string"
        }
      ],
      "payable": false,
      "stateMutability": "view",
      "type": "function"
    },
    {
      "constant": true,
      "inputs": [],
      "name": "patientCount",
      "outputs": [
        {
          "internalType": "uint256",
          "name": "",
          "type": "uint256"
        }
      ],
      "payable": false,
      "stateMutability": "view",
      "type": "function"
    },
    {
      "constant": true,
      "inputs": [],
      "name": "visitCount",
      "outputs": [
        {
          "internalType": "uint256",
          "name": "",
          "type": "uint256"
        }
      ],
      "payable": false,
      "stateMutability": "view",
      "type": "function"
    },
    {
      "constant": false,
      "inputs": [
        {
          "internalType": "string",
          "name": "_patientEnc",
          "type": "string"
        },
        {
          "internalType": "string",
          "name": "_patientSig",
          "type": "string"
        }
      ],
      "name": "addPatient",
      "outputs": [],
      "payable": false,
      "stateMutability": "nonpayable",
      "type": "function"
    },
    {
      "constant": false,
      "inputs": [
        {
          "internalType": "string",
          "name": "_visitHash",
          "type": "string"
        },
        {
          "internalType": "string",
          "name": "_visitSig",
          "type": "string"
        }
      ],
      "name": "addVisit",
      "outputs": [],
      "payable": false,
      "stateMutability": "nonpayable",
      "type": "function"
    }
  ],
  "bytecode": "0x608060405234801561001057600080fd5b50610a82806100206000396000f3fe608060405234801561001057600080fd5b50600436106100885760003560e01c8063a0303c411161005b578063a0303c41146103d4578063c4dbde47146103f2578063e0e4367e14610544578063ea3574f41461056257610088565b80630a13639a1461008d578063239ee6c11461013457806374f5f3ff1461028657806392cd88a01461032d575b600080fd5b6100b9600480360360208110156100a357600080fd5b8101908080359060200190929190505050610609565b6040518080602001828103825283818151815260200191508051906020019080838360005b838110156100f95780820151818401526020810190506100de565b50505050905090810190601f1680156101265780820380516001836020036101000a031916815260200191505b509250505060405180910390f35b6102846004803603604081101561014a57600080fd5b810190808035906020019064010000000081111561016757600080fd5b82018360208201111561017957600080fd5b8035906020019184600183028401116401000000008311171561019b57600080fd5b91908080601f016020809104026020016040519081016040528093929190818152602001838380828437600081840152601f19601f820116905080830192505050505050509192919290803590602001906401000000008111156101fe57600080fd5b82018360208201111561021057600080fd5b8035906020019184600183028401116401000000008311171561023257600080fd5b91908080601f016020809104026020016040519081016040528093929190818152602001838380828437600081840152601f19601f8201169050808301925050505050505091929192905050506106b9565b005b6102b26004803603602081101561029c57600080fd5b8101908080359060200190929190505050610723565b6040518080602001828103825283818151815260200191508051906020019080838360005b838110156102f25780820151818401526020810190506102d7565b50505050905090810190601f16801561031f5780820380516001836020036101000a031916815260200191505b509250505060405180910390f35b6103596004803603602081101561034357600080fd5b81019080803590602001909291905050506107d3565b6040518080602001828103825283818151815260200191508051906020019080838360005b8381101561039957808201518184015260208101905061037e565b50505050905090810190601f1680156103c65780820380516001836020036101000a031916815260200191505b509250505060405180910390f35b6103dc610883565b6040518082815260200191505060405180910390f35b6105426004803603604081101561040857600080fd5b810190808035906020019064010000000081111561042557600080fd5b82018360208201111561043757600080fd5b8035906020019184600183028401116401000000008311171561045957600080fd5b91908080601f016020809104026020016040519081016040528093929190818152602001838380828437600081840152601f19601f820116905080830192505050505050509192919290803590602001906401000000008111156104bc57600080fd5b8201836020820111156104ce57600080fd5b803590602001918460018302840111640100000000831117156104f057600080fd5b91908080601f016020809104026020016040519081016040528093929190818152602001838380828437600081840152601f19601f820116905080830192505050505050509192919290505050610889565b005b61054c6108f2565b6040518082815260200191505060405180910390f35b61058e6004803603602081101561057857600080fd5b81019080803590602001909291905050506108f8565b6040518080602001828103825283818151815260200191508051906020019080838360005b838110156105ce5780820151818401526020810190506105b3565b50505050905090810190601f1680156105fb5780820380516001836020036101000a031916815260200191505b509250505060405180910390f35b60036020528060005260406000206000915090508054600181600116156101000203166002900480601f0160208091040260200160405190810160405280929190818152602001828054600181600116156101000203166002900480156106b15780601f10610686576101008083540402835291602001916106b1565b820191906000526020600020905b81548152906001019060200180831161069457829003601f168201915b505050505081565b6005600081548092919060010191905055508160026000600554815260200190815260200160002090805190602001906106f49291906109a8565b5080600360006005548152602001908152602001600020908051906020019061071e9291906109a8565b505050565b60026020528060005260406000206000915090508054600181600116156101000203166002900480601f0160208091040260200160405190810160405280929190818152602001828054600181600116156101000203166002900480156107cb5780601f106107a0576101008083540402835291602001916107cb565b820191906000526020600020905b8154815290600101906020018083116107ae57829003601f168201915b505050505081565b60006020528060005260406000206000915090508054600181600116156101000203166002900480601f01602080910402602001604051908101604052809291908181526020018280546001816001161561010002031660029004801561087b5780601f106108505761010080835404028352916020019161087b565b820191906000526020600020905b81548152906001019060200180831161085e57829003601f168201915b505050505081565b60055481565b60046000815480929190600101919050555081600080600454815260200190815260200160002090805190602001906108c39291906109a8565b508060016000600454815260200190815260200160002090805190602001906108ed9291906109a8565b505050565b60045481565b60016020528060005260406000206000915090508054600181600116156101000203166002900480601f0160208091040260200160405190810160405280929190818152602001828054600181600116156101000203166002900480156109a05780601f10610975576101008083540402835291602001916109a0565b820191906000526020600020905b81548152906001019060200180831161098357829003601f168201915b505050505081565b828054600181600116156101000203166002900490600052602060002090601f016020900481019282601f106109e957805160ff1916838001178555610a17565b82800160010185558215610a17579182015b82811115610a165782518255916020019190600101906109fb565b5b509050610a249190610a28565b5090565b610a4a91905b80821115610a46576000816000905550600101610a2e565b5090565b9056fea265627a7a7231582018da7c32fe71efb992b215c3c3744273f7aec8a6ae7fd9e95e026a1b1716583c64736f6c63430005100032",
  "source": "// SPDX-License-Identifier: MIT\r\npragma solidity ^0.5.16;\r\n\r\ncontract EHR {\r\n    mapping(uint256 => string) public Enc_Visits;\r\n    mapping(uint256 => string) public Visits_sig;\r\n    mapping(uint256 => string) public Enc_Patients;\r\n    mapping(uint256 => string) public Patients_sig;\r\n    uint256 public visitCount;\r\n    uint256 public patientCount;\r\n\r\n    function addPatient(string memory _patientEnc, string memory _patientSig)\r\n        public\r\n    {\r\n        patientCount++;\r\n        Enc_Patients[patientCount] = _patientEnc;\r\n        Patients_sig[patientCount] = _patientSig;\r\n    }\r\n\r\n    function addVisit(string memory _visitHash, string memory _visitSig)\r\n        public\r\n    {\r\n        visitCount++;\r\n        Enc_Visits[visitCount] = _visitHash;\r\n        Visits_sig[visitCount] = _visitSig;\r\n    }\r\n}\r\n",
  "sourcePath": "E:\\GUC\\Sem 10\\Security\\project\\bc_security\\src\\contracts\\EHR.sol",
  "compiler": {
    "name": "solc",
    "version": "0.5.16+commit.9c3226ce.Emscripten.clang"
  },
  "schemaVersion": "3.4.7",
  "updatedAt": "2022-06-11T18:45:12.820Z",
  "devdoc": {
    "methods": {}
  },
  "userdoc": {
    "methods": {}
  }
}